{
  "_format": "hh-sol-artifact-1",
  "contractName": "LendingPlatform",
  "sourceName": "contracts/LendingPlatform.sol",
  "abi": [
    {
      "anonymous": false,
      "inputs": [
        {
          "indexed": false,
          "internalType": "uint256",
          "name": "loanId",
          "type": "uint256"
        },
        {
          "indexed": false,
          "internalType": "address",
          "name": "lender",
          "type": "address"
        }
      ],
      "name": "LoanFunded",
      "type": "event"
    },
    {
      "anonymous": false,
      "inputs": [
        {
          "indexed": false,
          "internalType": "uint256",
          "name": "loanId",
          "type": "uint256"
        },
        {
          "indexed": false,
          "internalType": "address",
          "name": "borrower",
          "type": "address"
        }
      ],
      "name": "LoanRepaid",
      "type": "event"
    },
    {
      "anonymous": false,
      "inputs": [
        {
          "indexed": false,
          "internalType": "uint256",
          "name": "loanId",
          "type": "uint256"
        },
        {
          "indexed": false,
          "internalType": "address",
          "name": "borrower",
          "type": "address"
        },
        {
          "indexed": false,
          "internalType": "uint256",
          "name": "amount",
          "type": "uint256"
        },
        {
          "indexed": false,
          "internalType": "uint256",
          "name": "interest",
          "type": "uint256"
        }
      ],
      "name": "LoanRequested",
      "type": "event"
    },
    {
      "inputs": [
        {
          "internalType": "uint256",
          "name": "loanId",
          "type": "uint256"
        }
      ],
      "name": "fundLoan",
      "outputs": [],
      "stateMutability": "payable",
      "type": "function"
    },
    {
      "inputs": [],
      "name": "getAllLoanIds",
      "outputs": [
        {
          "internalType": "uint256[]",
          "name": "",
          "type": "uint256[]"
        }
      ],
      "stateMutability": "view",
      "type": "function"
    },
    {
      "inputs": [
        {
          "internalType": "address",
          "name": "user",
          "type": "address"
        }
      ],
      "name": "getReputation",
      "outputs": [
        {
          "internalType": "uint256",
          "name": "",
          "type": "uint256"
        }
      ],
      "stateMutability": "view",
      "type": "function"
    },
    {
      "inputs": [
        {
          "internalType": "address",
          "name": "user",
          "type": "address"
        }
      ],
      "name": "getUserLoans",
      "outputs": [
        {
          "internalType": "uint256[]",
          "name": "",
          "type": "uint256[]"
        }
      ],
      "stateMutability": "view",
      "type": "function"
    },
    {
      "inputs": [],
      "name": "loanCount",
      "outputs": [
        {
          "internalType": "uint256",
          "name": "",
          "type": "uint256"
        }
      ],
      "stateMutability": "view",
      "type": "function"
    },
    {
      "inputs": [
        {
          "internalType": "uint256",
          "name": "",
          "type": "uint256"
        }
      ],
      "name": "loans",
      "outputs": [
        {
          "internalType": "address",
          "name": "borrower",
          "type": "address"
        },
        {
          "internalType": "address",
          "name": "lender",
          "type": "address"
        },
        {
          "internalType": "uint256",
          "name": "amount",
          "type": "uint256"
        },
        {
          "internalType": "uint256",
          "name": "interest",
          "type": "uint256"
        },
        {
          "internalType": "uint256",
          "name": "dueDate",
          "type": "uint256"
        },
        {
          "internalType": "bool",
          "name": "funded",
          "type": "bool"
        },
        {
          "internalType": "bool",
          "name": "repaid",
          "type": "bool"
        }
      ],
      "stateMutability": "view",
      "type": "function"
    },
    {
      "inputs": [
        {
          "internalType": "uint256",
          "name": "loanId",
          "type": "uint256"
        }
      ],
      "name": "repayLoan",
      "outputs": [],
      "stateMutability": "payable",
      "type": "function"
    },
    {
      "inputs": [
        {
          "internalType": "address",
          "name": "",
          "type": "address"
        }
      ],
      "name": "reputation",
      "outputs": [
        {
          "internalType": "uint256",
          "name": "",
          "type": "uint256"
        }
      ],
      "stateMutability": "view",
      "type": "function"
    },
    {
      "inputs": [
        {
          "internalType": "uint256",
          "name": "amount",
          "type": "uint256"
        },
        {
          "internalType": "uint256",
          "name": "interest",
          "type": "uint256"
        },
        {
          "internalType": "uint256",
          "name": "duration",
          "type": "uint256"
        }
      ],
      "name": "requestLoan",
      "outputs": [],
      "stateMutability": "nonpayable",
      "type": "function"
    },
    {
      "inputs": [
        {
          "internalType": "address",
          "name": "",
          "type": "address"
        },
        {
          "internalType": "uint256",
          "name": "",
          "type": "uint256"
        }
      ],
      "name": "userLoans",
      "outputs": [
        {
          "internalType": "uint256",
          "name": "",
          "type": "uint256"
        }
      ],
      "stateMutability": "view",
      "type": "function"
    }
  ],
  "bytecode": "0x608060405234801561001057600080fd5b50611287806100206000396000f3fe6080604052600436106100915760003560e01c8063b9f7945111610059578063b9f7945114610173578063ce63094d146101b0578063d8bad5bd146101db578063e1ec3c6814610218578063edadbbfe1461025b57610091565b806302bf321f146100965780635c1bf865146100d3578063846b909a146100fe5780639c89a0e21461011a578063ab7b1c8914610157575b600080fd5b3480156100a257600080fd5b506100bd60048036038101906100b89190610be7565b610284565b6040516100ca9190610cdc565b60405180910390f35b3480156100df57600080fd5b506100e861031b565b6040516100f59190610cdc565b60405180910390f35b61011860048036038101906101139190610d2a565b6103bf565b005b34801561012657600080fd5b50610141600480360381019061013c9190610be7565b610595565b60405161014e9190610d66565b60405180910390f35b610171600480360381019061016c9190610d2a565b6105de565b005b34801561017f57600080fd5b5061019a60048036038101906101959190610be7565b610862565b6040516101a79190610d66565b60405180910390f35b3480156101bc57600080fd5b506101c561087a565b6040516101d29190610d66565b60405180910390f35b3480156101e757600080fd5b5061020260048036038101906101fd9190610d81565b610880565b60405161020f9190610d66565b60405180910390f35b34801561022457600080fd5b5061023f600480360381019061023a9190610d2a565b6108b1565b6040516102529796959493929190610deb565b60405180910390f35b34801561026757600080fd5b50610282600480360381019061027d9190610e5a565b61094d565b005b6060600260008373ffffffffffffffffffffffffffffffffffffffff1673ffffffffffffffffffffffffffffffffffffffff16815260200190815260200160002080548060200260200160405190810160405280929190818152602001828054801561030f57602002820191906000526020600020905b8154815260200190600101908083116102fb575b50505050509050919050565b60606000805467ffffffffffffffff81111561033a57610339610ead565b5b6040519080825280602002602001820160405280156103685781602001602082028036833780820191505090505b50905060005b6000548110156103b7576001816103859190610f0b565b82828151811061039857610397610f3f565b5b60200260200101818152505080806103af90610f6e565b91505061036e565b508091505090565b60006001600083815260200190815260200160002090508060050160009054906101000a900460ff1615801561040457508060050160019054906101000a900460ff16155b610443576040517f08c379a000000000000000000000000000000000000000000000000000000000815260040161043a90611013565b60405180910390fd5b80600201543414610489576040517f08c379a00000000000000000000000000000000000000000000000000000000081526004016104809061107f565b60405180910390fd5b338160010160006101000a81548173ffffffffffffffffffffffffffffffffffffffff021916908373ffffffffffffffffffffffffffffffffffffffff16021790555060018160050160006101000a81548160ff0219169083151502179055508060000160009054906101000a900473ffffffffffffffffffffffffffffffffffffffff1673ffffffffffffffffffffffffffffffffffffffff166108fc82600201549081150290604051600060405180830381858888f19350505050158015610557573d6000803e3d6000fd5b507f15feab5d3eb17171632762cf769709a315dd15f487a556c0dfb8a259c8f186cc823360405161058992919061109f565b60405180910390a15050565b6000600360008373ffffffffffffffffffffffffffffffffffffffff1673ffffffffffffffffffffffffffffffffffffffff168152602001908152602001600020549050919050565b60006001600083815260200190815260200160002090508060050160009054906101000a900460ff16801561062257508060050160019054906101000a900460ff16155b610661576040517f08c379a000000000000000000000000000000000000000000000000000000000815260040161065890611114565b60405180910390fd5b8060000160009054906101000a900473ffffffffffffffffffffffffffffffffffffffff1673ffffffffffffffffffffffffffffffffffffffff163373ffffffffffffffffffffffffffffffffffffffff16146106f3576040517f08c379a00000000000000000000000000000000000000000000000000000000081526004016106ea90611180565b60405180910390fd5b806003015481600201546107079190610f0b565b3414610748576040517f08c379a000000000000000000000000000000000000000000000000000000000815260040161073f906111ec565b60405180910390fd5b60018160050160016101000a81548160ff0219169083151502179055508060010160009054906101000a900473ffffffffffffffffffffffffffffffffffffffff1673ffffffffffffffffffffffffffffffffffffffff166108fc349081150290604051600060405180830381858888f193505050501580156107cf573d6000803e3d6000fd5b50600360003373ffffffffffffffffffffffffffffffffffffffff1673ffffffffffffffffffffffffffffffffffffffff168152602001908152602001600020600081548092919061082090610f6e565b91905055507fe69d7686a8bc68278b8c5419579f91716b3ef2ac2fac0d8cf80b8011f8f458a4823360405161085692919061109f565b60405180910390a15050565b60036020528060005260406000206000915090505481565b60005481565b6002602052816000526040600020818154811061089c57600080fd5b90600052602060002001600091509150505481565b60016020528060005260406000206000915090508060000160009054906101000a900473ffffffffffffffffffffffffffffffffffffffff16908060010160009054906101000a900473ffffffffffffffffffffffffffffffffffffffff16908060020154908060030154908060040154908060050160009054906101000a900460ff16908060050160019054906101000a900460ff16905087565b60008081548092919061095f90610f6e565b91905055506040518060e001604052803373ffffffffffffffffffffffffffffffffffffffff168152602001600073ffffffffffffffffffffffffffffffffffffffff16815260200184815260200183815260200182426109c09190610f0b565b815260200160001515815260200160001515815250600160008054815260200190815260200160002060008201518160000160006101000a81548173ffffffffffffffffffffffffffffffffffffffff021916908373ffffffffffffffffffffffffffffffffffffffff16021790555060208201518160010160006101000a81548173ffffffffffffffffffffffffffffffffffffffff021916908373ffffffffffffffffffffffffffffffffffffffff16021790555060408201518160020155606082015181600301556080820151816004015560a08201518160050160006101000a81548160ff02191690831515021790555060c08201518160050160016101000a81548160ff021916908315150217905550905050600260003373ffffffffffffffffffffffffffffffffffffffff1673ffffffffffffffffffffffffffffffffffffffff16815260200190815260200160002060005490806001815401808255809150506001900390600052602060002001600090919091909150557f68595dbe887ae7f496f2c88735019a8918919a1decfdee6bdb460480ab87decb600054338585604051610b77949392919061120c565b60405180910390a1505050565b600080fd5b600073ffffffffffffffffffffffffffffffffffffffff82169050919050565b6000610bb482610b89565b9050919050565b610bc481610ba9565b8114610bcf57600080fd5b50565b600081359050610be181610bbb565b92915050565b600060208284031215610bfd57610bfc610b84565b5b6000610c0b84828501610bd2565b91505092915050565b600081519050919050565b600082825260208201905092915050565b6000819050602082019050919050565b6000819050919050565b610c5381610c40565b82525050565b6000610c658383610c4a565b60208301905092915050565b6000602082019050919050565b6000610c8982610c14565b610c938185610c1f565b9350610c9e83610c30565b8060005b83811015610ccf578151610cb68882610c59565b9750610cc183610c71565b925050600181019050610ca2565b5085935050505092915050565b60006020820190508181036000830152610cf68184610c7e565b905092915050565b610d0781610c40565b8114610d1257600080fd5b50565b600081359050610d2481610cfe565b92915050565b600060208284031215610d4057610d3f610b84565b5b6000610d4e84828501610d15565b91505092915050565b610d6081610c40565b82525050565b6000602082019050610d7b6000830184610d57565b92915050565b60008060408385031215610d9857610d97610b84565b5b6000610da685828601610bd2565b9250506020610db785828601610d15565b9150509250929050565b610dca81610ba9565b82525050565b60008115159050919050565b610de581610dd0565b82525050565b600060e082019050610e00600083018a610dc1565b610e0d6020830189610dc1565b610e1a6040830188610d57565b610e276060830187610d57565b610e346080830186610d57565b610e4160a0830185610ddc565b610e4e60c0830184610ddc565b98975050505050505050565b600080600060608486031215610e7357610e72610b84565b5b6000610e8186828701610d15565b9350506020610e9286828701610d15565b9250506040610ea386828701610d15565b9150509250925092565b7f4e487b7100000000000000000000000000000000000000000000000000000000600052604160045260246000fd5b7f4e487b7100000000000000000000000000000000000000000000000000000000600052601160045260246000fd5b6000610f1682610c40565b9150610f2183610c40565b9250828201905080821115610f3957610f38610edc565b5b92915050565b7f4e487b7100000000000000000000000000000000000000000000000000000000600052603260045260246000fd5b6000610f7982610c40565b91507fffffffffffffffffffffffffffffffffffffffffffffffffffffffffffffffff8203610fab57610faa610edc565b5b600182019050919050565b600082825260208201905092915050565b7f4c6f616e206e6f742066756e6461626c65000000000000000000000000000000600082015250565b6000610ffd601183610fb6565b915061100882610fc7565b602082019050919050565b6000602082019050818103600083015261102c81610ff0565b9050919050565b7f53656e642066756c6c206c6f616e20616d6f756e740000000000000000000000600082015250565b6000611069601583610fb6565b915061107482611033565b602082019050919050565b600060208201905081810360008301526110988161105c565b9050919050565b60006040820190506110b46000830185610d57565b6110c16020830184610dc1565b9392505050565b7f4c6f616e206e6f74206163746976650000000000000000000000000000000000600082015250565b60006110fe600f83610fb6565b9150611109826110c8565b602082019050919050565b6000602082019050818103600083015261112d816110f1565b9050919050565b7f4f6e6c7920626f72726f77657200000000000000000000000000000000000000600082015250565b600061116a600d83610fb6565b915061117582611134565b602082019050919050565b600060208201905081810360008301526111998161115d565b9050919050565b7f50617920746f74616c20616d6f756e74202b20696e7465726573740000000000600082015250565b60006111d6601b83610fb6565b91506111e1826111a0565b602082019050919050565b60006020820190508181036000830152611205816111c9565b9050919050565b60006080820190506112216000830187610d57565b61122e6020830186610dc1565b61123b6040830185610d57565b6112486060830184610d57565b9594505050505056fea2646970667358221220e7614af598b965e3ce288824284ed2c4830883c1985517bf41b5469627403ca364736f6c63430008140033",
  "linkReferences": {},
  "deployedLinkReferences": {}
}